:020000040000FA
:100000000C9462000C948A000C948A000C948A0070
:100010000C948A000C948A000C948A000C948A0038
:100020000C948A000C948A000C948A000C948A0028
:100030000C948A000C948A000C948A000C948A0018
:100040000C942D050C948A000C949D050C94770556
:100050000C948A000C948A000C948A000C948A00F8
:100060000C948A000C948A000000000024002700F1
:100070002A0000000000250028002B0000000000DE
:1000800023002600290004040404040404040202DA
:100090000202020203030303030301020408102007
:1000A0004080010204081020010204081020000012
:1000B0000008000201000003040700000000000027
:1000C0000000CF0511241FBECFEFD8E0DEBFCDBFAB
:1000D00011E0A0E0B1E0E4EAF1E102C005900D9288
:1000E000A03DB107D9F722E0A0EDB1E001C01D921B
:1000F000AB3AB207E1F710E0C2E6D0E004C02197C6
:10010000FE010E94CA08C136D107C9F70E9419062C
:100110000C94D0080C940000833081F028F48130D6
:1001200099F08230A9F008958730A9F08830C9F09D
:100130008430B1F4809180008F7D03C08091800075
:100140008F7780938000089584B58F7784BD08955C
:1001500084B58F7DFBCF8091B0008F778093B00006
:1001600008958091B0008F7DF9CFCF93DF93282F32
:1001700030E0F901E255FF4F8491F901E656FF4F57
:10018000D491F901EA57FF4FC491CC23A1F081111A
:100190000E948C00EC2FF0E0EE0FFF1FE458FF4FA1
:1001A000A591B491EC91ED2381E090E009F480E019
:1001B000DF91CF91089580E090E0FACF1F93CF9325
:1001C000DF93282F30E0F901E255FF4F8491F901C8
:1001D000E656FF4FD491F901EA57FF4FC491CC2363
:1001E000A9F0162F81110E948C00EC2FF0E0EE0F89
:1001F000FF1FEE58FF4FA591B4918FB7F894EC9183
:10020000111108C0D095DE23DC938FBFDF91CF9111
:100210001F910895DE2BF8CFCF93DF9390E0FC0180
:10022000E656FF4F24918A579F4FFC018491882303
:10023000C9F090E0880F991FFC01E859FF4FA59184
:10024000B491FC01EE58FF4FC591D49161110DC0DE
:100250009FB7F8948C91209582238C9388812823D2
:1002600028839FBFDF91CF910895623051F49FB7EB
:10027000F8943C91822F809583238C93E8812E2BD8
:10028000EFCF8FB7F894EC912E2B2C938FBFEACF42
:100290003FB7F8948091F2019091F301A091F4019D
:1002A000B091F50126B5A89B05C02F3F19F0019626
:1002B000A11DB11D3FBFBA2FA92F982F8827BC01C0
:1002C000CD01620F711D811D911D42E0660F771FE8
:1002D000881F991F4A95D1F708958F929F92AF92E8
:1002E000BF92CF92DF92EF92FF920E9448014B01A2
:1002F0005C018CE2C82EDD24D394E12CF12C0E9409
:100300004801681979098A099B09683E734081058B
:100310009105A8F321E0C21AD108E108F10888EE9E
:10032000880E83E0981EA11CB11CC114D104E10405
:10033000F10429F7FF90EF90DF90CF90BF90AF903E
:100340009F908F9008952FB7F8946091EE0170916F
:10035000EF018091F0019091F1012FBF0895AF92CC
:10036000BF92CF92DF92EF92FF920F931F93CF93A2
:10037000DF936C017B018B01040F151FEB015E0104
:10038000AE18BF08C017D10759F06991D601ED9199
:10039000FC910190F081E02DC6010995892B79F738
:1003A000C501DF91CF911F910F91FF90EF90DF90EA
:1003B000CF90BF90AF900895FC01538D448D252FB1
:1003C00030E0842F90E0821B930B541710F0CF96EF
:1003D000089501970895FC01918D828D981761F021
:1003E000A28DAE0FBF2FB11D5D968C91928D9F5F38
:1003F0009F73928F90E008958FEF9FEF0895FC0117
:10040000918D828D981731F0828DE80FF11D858DC9
:1004100090E008958FEF9FEF0895FC01918D228D5C
:10042000892F90E0805C9F4F821B91098F739927E1
:10043000089586EF91E00E940D0221E0892B09F4D6
:1004400020E0822F089580E090E0892B29F00E941F
:10045000190281110C9400000895FC01A48DA80FCD
:10046000B92FB11DA35ABF4F2C91848D90E00196F6
:100470008F739927848FA689B7892C93A089B18916
:100480008C91837080648C93938D848D981306C0B7
:100490000288F389E02D80818F7D80830895EF921B
:1004A000FF920F931F93CF93DF93EC0181E0888F2E
:1004B0009B8D8C8D98131AC0E889F989808185FFFE
:1004C00015C09FB7F894EE89FF896083E889F989A0
:1004D00080818370806480839FBF81E090E0DF91A2
:1004E000CF911F910F91FF90EF900895F62E0B8DF5
:1004F00010E00F5F1F4F0F731127E02E8C8D8E11B0
:100500000CC00FB607FCFACFE889F989808185FF16
:10051000F5CFCE010E942D02F1CFEB8DEC0FFD2F18
:10052000F11DE35AFF4FF0829FB7F8940B8FEA89D1
:10053000FB8980818062CFCFCF93DF93EC01888DE0
:100540008823B9F0AA89BB89E889F9898C9185FD4E
:1005500003C0808186FD0DC00FB607FCF7CF8C91DC
:1005600085FFF2CF808185FFEDCFCE010E942D0265
:10057000E9CFDF91CF910895089590E080E008954C
:10058000FC0101900020E9F73197AF01481B590B9E
:10059000BC0183E992E00C94AF018F929F92AF92DD
:1005A000BF920F931F93CF93DF93CDB7DEB7A19781
:1005B0000FB6F894DEBF0FBECDBF19A2423008F4CB
:1005C0004AE08E010F5D1F4F842E912CB12CA12C7F
:1005D000A50194010E94A808E62FB901CA01EA30DA
:1005E000F4F4E05DD801EE938D01232B242B252B11
:1005F00079F790E080E0109719F0CD010E94C002D9
:10060000A1960FB6F894DEBF0FBECDBFDF91CF919C
:100610001F910F91BF90AF909F908F900895E95CCC
:10062000E1CF0C94C002CF93DF93EC0160E08E81A8
:100630000E94DE0061E08E810E94DE0060E08E811B
:100640000E94DE008BE891E00197F1F7DF91CF91F6
:100650000895CF92DF92EF92FF920F931F93CF9363
:10066000DF936C017C0187E0E80EF11CD0E0C0E074
:10067000062F10E0B8010C2E02C0759567950A94FC
:10068000E2F76170F70181917F010E94DE002196FF
:10069000C430D10579F7C601DF91CF911F910F9139
:1006A000FF90EF90DF90CF900C941303CF92DF92E6
:1006B000EF92FF920F931F93CF93DF93EC01F62EEF
:1006C000642F8C810E94DE008D818F3F19F060E0E5
:1006D0000E94DE000F2D10E08F8584FF25C06E0183
:1006E00087E0C80ED11CF12CE12CB8010E2C02C001
:1006F000759567950A94E2F76170F60181916F0133
:100700000E94DE00FFEFEF1AFF0A88E0E816F1040E
:1007100061F7CE01DF91CF911F910F91FF90EF9084
:10072000DF90CF900C941303B80184E07595679522
:100730008A95E1F7CE010E9429036F2DCE01DF914A
:10074000CF911F910F91FF90EF90DF90CF900C947D
:10075000290340E0682F83E992E00C94560381E07E
:100760000E94A9038BE39FE10197F1F70895CF93CE
:10077000DF93823029F49091A20298609093A202B4
:100780008093A6021092A70280E48093A80280E1E1
:100790008093A90280E58093AA0261E0809197028C
:1007A0000E940C01809198028F3F19F061E00E9435
:1007B0000C0161E0809199020E940C01C3E9D2E032
:1007C0009E01235932408091A20284FD0BC084E037
:1007D00090E021962817390744F461E08E810E9449
:1007E0000C01EECF88E090E0F4CF8BE39DE0019721
:1007F000F1F760E0809197020E94DE0060E0809156
:1008000099020E94DE00809198028F3F19F060E00B
:100810000E94DE008091A20284FD34C063E083E97F
:1008200092E00E942903CBE4D6E4CE010197F1F7D0
:1008300063E083E992E00E9429032197F1F763E0E6
:1008400083E992E00E94290383E592E00197F1F7A2
:1008500062E083E992E00E9429038091A202806213
:100860000E94A90384E08093A3028CE00E94A90364
:100870000E94AF0382E08093A40286E0DF91CF91D3
:100880000C94A90380620E94A9038BE496E401976B
:10089000F1F78091A20280620E94A90383E592E0B1
:1008A0000197F1F78091A20280620E94A903D5CF3F
:1008B000E091A602E23040F4E150F0E0ED56FD4F49
:1008C000848980680C94A903E1E0F7CF0E94AF030C
:1008D00088E291E00E94C00289E391E00E94C00298
:1008E0000E9458048CE391E00E94C00289E391E0E9
:1008F0000C94C00241E00E94560381E090E008950C
:1009000080910001823009F118F4813039F00895A6
:10091000833081F1843009F442C008950E94AF030E
:100920008DE491E00E9411030E94580487E591E054
:100930000E9411036091D8017091D9018091DA0170
:100940009091DB014AE00C94CD020E94AF0382E655
:1009500091E00E9411030E9458048CE691E00E94ED
:1009600011036091D4017091D5018091D6019091CD
:10097000D701E8CF0E94AF0387E791E00E941103FF
:100980000E94580481E891E00E9411036091D00117
:100990007091D1018091D2019091D301D3CF83E0A6
:1009A00080930001089580910001823039F128F48C
:1009B000882349F0813059F008958330B1F18430B3
:1009C00009F449C0089581E08093000108950E94D0
:1009D000AF038CE891E00E9411036091D8017091FF
:1009E000D9018091DA019091DB014AE00E94CD02A9
:1009F0000E94580487E991E00C9411030E94AF0310
:100A000081EA91E00E9411030E9458048BEA91E070
:100A10000E9411036091D4017091D5018091D6019B
:100A20009091D7014AE00C94CD020E94AF0386EB6F
:100A300091E00E9411036091D0017091D1018091E9
:100A4000D2019091D3014AE00E94CD020E94580445
:100A500081EC91E0D1CF83E0B7CF1F920F920FB618
:100A60000F9211242F933F938F939F93AF93BF9334
:100A70008091EE019091EF01A091F001B091F10110
:100A80003091ED0123E0230F2D3758F50196A11D7C
:100A9000B11D2093ED018093EE019093EF01A0939F
:100AA000F001B093F1018091F2019091F301A091D6
:100AB000F401B091F5010196A11DB11D8093F201E1
:100AC0009093F301A093F401B093F501BF91AF911E
:100AD0009F918F913F912F910F900FBE0F901F907C
:100AE000189526E8230F0296A11DB11DD2CF1F92A3
:100AF0000F920FB60F9211242F933F934F935F9352
:100B00006F937F938F939F93AF93BF93EF93FF93D5
:100B100086EF91E00E942D02FF91EF91BF91AF917E
:100B20009F918F917F916F915F914F913F912F9105
:100B30000F900FBE0F901F9018951F920F920FB637
:100B40000F9211242F938F939F93EF93FF93E09134
:100B50000602F09107028081E0910C02F0910D02F3
:100B600082FD1BC0908180910F028F5F8F73209157
:100B70001002821741F0E0910F02F0E0EA50FE4FC0
:100B8000958F80930F02FF91EF919F918F912F91FD
:100B90000F900FBE0F901F9018958081F4CFE6EF55
:100BA000F1E01382128288EE93E0A0E0B0E084834B
:100BB0009583A683B7838EE091E09183808385EC53
:100BC00090E09587848784EC90E09787868780EC17
:100BD00090E0918B808B81EC90E0938B828B82EC08
:100BE00090E0958B848B86EC90E0978B868B118EB2
:100BF000128E138E148EE3E9F2E01382128280E2E9
:100C000091E09183808387E084838FEF858386E002
:100C1000868385E0878384E0808783E0818782E024
:100C200082871386148615861686178681E00C94B3
:100C3000B703789484B5826084BD84B5816084BD37
:100C400085B5826085BD85B5816085BD80916E006A
:100C5000816080936E00109281008091810082609B
:100C600080938100809181008160809381008091D8
:100C700080008160809380008091B10084608093C7
:100C8000B1008091B00081608093B00080917A00C3
:100C9000846080937A0080917A00826080937A00E9
:100CA00080917A00816080937A0080917A008068D8
:100CB00080937A001092C10082E00E94B703E09115
:100CC0000602F091070282E08083E0910202F09137
:100CD00003021082E0910402F09105028FEC808300
:100CE00010920E02E0910A02F0910B0286E08083DE
:100CF000E0910802F0910902808180618083E09197
:100D00000802F0910902808188608083E0910802E6
:100D1000F0910902808180688083E0910802F0915F
:100D2000090280818F7D808362E08EE00E940C0149
:100D300062E08FE00E940C0162E080E10E940C0101
:100D400062E081E10E940C0160E082E10E940C01FE
:100D500061E08DE00E940C0160E08DE00E94DE0009
:100D60000E9466042224239480E3382E90E8492EC2
:100D70009EEE592E96E3692E712C8EE00E94B500EE
:100D80005C0188248394892B09F4812C8FE00E94D4
:100D9000B5006C0199249394892B09F4912C80E17E
:100DA0000E94B5007C01D1E0892B09F4D0E081E1FB
:100DB0000E94B5008C01C1E0892B09F4C0E080914C
:100DC0000901881651F00E94A3016093E901709314
:100DD000EA018093EB019093EC0180910801981651
:100DE00051F00E94A3016093E5017093E6018093A6
:100DF000E7019093E80180910701D81751F00E9414
:100E0000A3016093E1017093E2018093E301909369
:100E1000E40180910601C81751F00E94A30160937C
:100E2000DD017093DE018093DF019093E0010E9469
:100E3000A3012091E9013091EA014091EB01509129
:100E4000EC01621B730B840B950B633371058105F9
:100E5000910508F486C080910501881639F08092CA
:100E60000501AB2819F422E4209304010E94A30198
:100E70002091E5013091E6014091E7015091E801B0
:100E8000621B730B840B950B633371058105910510
:100E900008F46AC080910301981639F0909203011A
:100EA000CD2819F484E4809304010E94A3012091C9
:100EB000E1013091E2014091E3015091E401621BB4
:100EC000730B840B950B633371058105910508F451
:100ED0004EC080910201D81739F0D0930201EF285B
:100EE00019F495E5909304010E94A301C090DD01DF
:100EF000D090DE01E090DF01F090E0016C197D09F7
:100F00008E099F09633371058105910598F18091E0
:100F10000101C81739F0C0930101012B19F425E430
:100F2000209304018092090190920801D093070157
:100F3000C0930601809104019091DC01913031F160
:100F4000E0F0923009F444C080E090E0892B09F48D
:100F500014CF0E941902882309F40FCF0E940000C9
:100F60000CCF3092040182CF309204019ECF309298
:100F70000401BACF30920401D5CF853429F72092ED
:100F8000DC01209200010E94D30409C08434E1F006
:100F90004CF48234C9F61092DC010E9466040E946F
:100FA0006D01D2CF853441F0853571F68091000115
:100FB0008F5F80930001E7CF0E94800482E08093DE
:100FC000DC010E948004EBCF809100018150F1CFC1
:100FD000843409F481C034F4823409F0B5CF20920E
:100FE000DC01D1CF8534D9F3853509F0ADCF8091BF
:100FF0000001813021F58091D8019091D901A09113
:10100000DA01B091DB0180382EEE920726E3A207C9
:10101000B10560F40196A11DB11D8093D801909394
:10102000D901A093DA01B093DB01CBCF4092D80174
:101030005092D9016092DA017092DB01C2CF823006
:1010400021F58091D4019091D501A091D601B09164
:10105000D70180382EEE920726E3A207B10560F48F
:101060000196A11DB11D8093D4019093D501A09349
:10107000D601B093D701A5CF4092D4015092D501AB
:101080006092D6017092D7019CCF833009F099CF3E
:101090008091D0019091D101A091D201B091D30162
:1010A00080382EEE920726E3A207B10560F4019680
:1010B000A11DB11D8093D0019093D101A093D201C5
:1010C000B093D3017ECF4092D0015092D101609273
:1010D000D2017092D30175CF80910001813089F4E3
:1010E0008091D8019091D901A091DA01B091DB01F2
:1010F0000097A105B10509F464CF0197A109B109D1
:101100008CCF823089F48091D4019091D501A09147
:10111000D601B091D7010097A105B10509F451CFCF
:101120000197A109B1099FCF833009F04ACF80917F
:10113000D0019091D101A091D201B091D30100973B
:10114000A105B10509F43DCF0197A109B109B2CFBD
:10115000A1E21A2EAA1BBB1BFD010DC0AA1FBB1FBB
:10116000EE1FFF1FA217B307E407F50720F0A21B2D
:10117000B30BE40BF50B661F771F881F991F1A949A
:1011800069F760957095809590959B01AC01BD01C4
:10119000CF010895EE0FFF1F0590F491E02D099403
:1011A000F894FFCF010101013001010101010000AC
:1011B00000004F02AF01DC019C020D02EB01FF01B8
:1011C000000000007A04AF01BD02BC02202054657B
:1011D0006368546F54696E6B65722020000D0A00BD
:1011E00020202D205220666F72206D656E752020A4
:1011F000002052656C617920313A00202056616CE4
:101200002031203D20002052656C617920323A0067
:10121000202056616C2032203D20002052656C61F8
:101220007920333A00202056616C2033203D200085
:101230003E52656C617920313A20002052656C6124
:1012400079203220002052656C6179203120003EE7
:1012500052656C617920323A20003E52656C6179AA
:1012600020333A2000202020202020202020202071
:04127000202000003A
:107E0000112484B714BE81FFF0D085E080938100F7
:107E100082E08093C00088E18093C10086E0809377
:107E2000C20080E18093C4008EE0C9D0259A86E02C
:107E300020E33CEF91E0309385002093840096BBD3
:107E4000B09BFECF1D9AA8958150A9F7CC24DD24C4
:107E500088248394B5E0AB2EA1E19A2EF3E0BF2EE7
:107E6000A2D0813461F49FD0082FAFD0023811F036
:107E7000013811F484E001C083E08DD089C08234E0
:107E800011F484E103C0853419F485E0A6D080C0E4
:107E9000853579F488D0E82EFF2485D0082F10E0AE
:107EA000102F00270E291F29000F111F8ED06801E7
:107EB0006FC0863521F484E090D080E0DECF843638
:107EC00009F040C070D06FD0082F6DD080E0C81688
:107ED00080E7D80618F4F601B7BEE895C0E0D1E017
:107EE00062D089930C17E1F7F0E0CF16F0E7DF06D8
:107EF00018F0F601B7BEE89568D007B600FCFDCFD4
:107F0000A601A0E0B1E02C9130E011968C91119780
:107F100090E0982F8827822B932B1296FA010C0160
:107F200087BEE89511244E5F5F4FF1E0A038BF0790
:107F300051F7F601A7BEE89507B600FCFDCF97BE46
:107F4000E89526C08437B1F42ED02DD0F82E2BD052
:107F50003CD0F601EF2C8F010F5F1F4F84911BD097
:107F6000EA94F801C1F70894C11CD11CFA94CF0C13
:107F7000D11C0EC0853739F428D08EE10CD085E9AC
:107F80000AD08FE07ACF813511F488E018D01DD067
:107F900080E101D065CF982F8091C00085FFFCCF94
:107FA0009093C60008958091C00087FFFCCF809118
:107FB000C00084FD01C0A8958091C6000895E0E648
:107FC000F0E098E1908380830895EDDF803219F02E
:107FD00088E0F5DFFFCF84E1DECF1F93182FE3DFCA
:107FE0001150E9F7F2DF1F91089580E0E8DFEE27F6
:047FF000FF270994CA
:027FFE00040479
:00000001FF
